:100000006F000036000000003201000034010000E3
:1000100000000000000000000000000000000000E0
:1000200000000000000000000000000000000000D0
:10003000D8010000000000005E0300000000000086
:100040005E0300005E0300005E0300005E0300002C
:100050005E0300005E0300005E0300005E0300001C
:100060005E0300005E0300005E0300005E0300000C
:100070005E0300005E0300005E0300005E030000FC
:100080005E0300005E0300005E0300005E030000EC
:100090005E0300005E0300005E030000000000003D
:1000A000511126C022C206C4828282441244A24058
:1000B00031018280634E050263C305042E86AA8542
:1000C0007D5515C285466378B6006356C0000606A6
:1000D0008606E36CB6FE014563E4C500918D558D3F
:1000E00085820582F5FA82808682C93F2E858282CA
:1000F0003305A04063D70500B305B040C1B7B305D1
:10010000B0408682653F3305A0408282868263C705
:100110000500634905005D372E858282B305B04036
:10012000E35B05FE3305A040513F3305B0408282BA
:10013000000001A001A0371702401C4F93E7070100
:100140001CCF896737170140938707221CC32326DA
:1001500007008280B71701401147D8CB8280B717BC
:1001600001401147D8CB8280B7170140094798CB8F
:100170008280B71701409847098B01C70947D8CB40
:100180008280094798CB8280B71701409847118B2E
:1001900001C71147D8CB8280114798CB8280B7170F
:1001A00001409847218B01C72147D8CB8280214746
:1001B00098CB8280EFF2DFEE1D28352CAD3F6D37F6
:1001C000513F713F9307800873A0073081287DDD80
:1001D0004D375D3FE937DDBFB70700200547238472
:1001E000E700B7F700E023A2070073002030B7074D
:1001F0000020238407000567B7E700E023A0E7108D
:10020000B7F700E037376E0123A207001307F75F47
:1002100098CB23A407003D4798C38280B7070020EE
:10022000938787008823238007008280EFF25FE7AF
:10023000371402401C403707FFF8611193E717009D
:100240001CC05C404145F98F5CC01C403707F7FE7D
:100250007D17F98F1CC01C403707FCFF7D17F98FF5
:100260001CC05C4041777D17F98F5CC0B7079F00C9
:100270001CC48D2A1C4C3706020093E707021CCCD5
:10028000B717014003A70740938607401377F7F09D
:1002900023A0E74003A707401367070823A0E74010
:1002A00089479CCA02C002C21C4C37070140A166A4
:1002B00093E717001CCC5C43D58F5CC31C4041679F
:1002C000B7160240D98F1CC009679C42F18F3EC20D
:1002D000824785073EC0924781E78247E397E7FE62
:1002E000B71702409C431397E700635807068547FA
:1002F0003EC2124785476310F706B727024098436E
:10030000C176FD16719B98C398431367170098C375
:10031000B7170240D843D8C3D843758FD8C3D84342
:10032000C166558FD8C39843B7060001558F98C34F
:10033000984393166700E3DD06FED843B7160240E4
:10034000719BD8C3D84313672700D8C32147DC4229
:10035000B18BE39EE7FE210189BB02C259BF01A018
:10036000970100209381814A138181FF1305004387
:1003700097050020938505C917060020130606C9B6
:1003800063FAC5008322050023A0550011059105DD
:10039000E3EAC5FE17050020130545C79385818054
:1003A0006377B500232005001105E36DB5FEB72284
:1003B000000093820288739002308D4273904280D5
:1003C00097020000938202C493E23200739052308D
:1003D000EFF0DFE597020000938202DE73901234A3
:1003E00073002030371702401C430E0593F777F057
:1003F0005D8D08C38280EFF2BFCAB707002003A556
:100400000700B7157A00938505204D391375F50F50
:10041000B70700202386A70093175500898F8A0706
:100420003E950E05B70700202395A700BDB9000033
:08043000006CDC02000000007A
:00000001FF
